{
  "contractName": "Admin",
  "abi": [
    {
      "anonymous": false,
      "inputs": [
        {
          "indexed": false,
          "internalType": "address",
          "name": "_address",
          "type": "address"
        }
      ],
      "name": "Blacklisted",
      "type": "event"
    },
    {
      "anonymous": false,
      "inputs": [
        {
          "indexed": true,
          "internalType": "address",
          "name": "previousOwner",
          "type": "address"
        },
        {
          "indexed": true,
          "internalType": "address",
          "name": "newOwner",
          "type": "address"
        }
      ],
      "name": "OwnershipTransferred",
      "type": "event"
    },
    {
      "anonymous": false,
      "inputs": [
        {
          "indexed": false,
          "internalType": "address",
          "name": "_address",
          "type": "address"
        }
      ],
      "name": "Whitelisted",
      "type": "event"
    },
    {
      "inputs": [],
      "name": "owner",
      "outputs": [
        {
          "internalType": "address",
          "name": "",
          "type": "address"
        }
      ],
      "stateMutability": "view",
      "type": "function"
    },
    {
      "inputs": [],
      "name": "renounceOwnership",
      "outputs": [],
      "stateMutability": "nonpayable",
      "type": "function"
    },
    {
      "inputs": [
        {
          "internalType": "address",
          "name": "newOwner",
          "type": "address"
        }
      ],
      "name": "transferOwnership",
      "outputs": [],
      "stateMutability": "nonpayable",
      "type": "function"
    },
    {
      "inputs": [
        {
          "internalType": "address",
          "name": "_address",
          "type": "address"
        }
      ],
      "name": "isWhitelisted",
      "outputs": [
        {
          "internalType": "bool",
          "name": "",
          "type": "bool"
        }
      ],
      "stateMutability": "view",
      "type": "function"
    },
    {
      "inputs": [
        {
          "internalType": "address",
          "name": "_address",
          "type": "address"
        }
      ],
      "name": "isBlacklisted",
      "outputs": [
        {
          "internalType": "bool",
          "name": "",
          "type": "bool"
        }
      ],
      "stateMutability": "view",
      "type": "function"
    },
    {
      "inputs": [
        {
          "internalType": "address",
          "name": "_address",
          "type": "address"
        }
      ],
      "name": "whitelist",
      "outputs": [],
      "stateMutability": "nonpayable",
      "type": "function"
    },
    {
      "inputs": [
        {
          "internalType": "address",
          "name": "_address",
          "type": "address"
        }
      ],
      "name": "blacklist",
      "outputs": [],
      "stateMutability": "nonpayable",
      "type": "function"
    }
  ],
  "bytecode": "0x608060405234801561001057600080fd5b5061002d61002261003260201b60201c565b61003a60201b60201c565b6100fe565b600033905090565b60008060009054906101000a900473ffffffffffffffffffffffffffffffffffffffff169050816000806101000a81548173ffffffffffffffffffffffffffffffffffffffff021916908373ffffffffffffffffffffffffffffffffffffffff1602179055508173ffffffffffffffffffffffffffffffffffffffff168173ffffffffffffffffffffffffffffffffffffffff167f8be0079c531659141344cd1fd0a4f28419497f9722a3daafe3b4186f6b6457e060405160405180910390a35050565b610ca28061010d6000396000f3fe608060405234801561001057600080fd5b506004361061007d5760003560e01c80639b19251a1161005b5780639b19251a146100da578063f2fde38b146100f6578063f9f92be414610112578063fe575a871461012e5761007d565b80633af32abf14610082578063715018a6146100b25780638da5cb5b146100bc575b600080fd5b61009c600480360381019061009791906109ac565b61015e565b6040516100a991906109f4565b60405180910390f35b6100ba6101b4565b005b6100c461023c565b6040516100d19190610a1e565b60405180910390f35b6100f460048036038101906100ef91906109ac565b610265565b005b610110600480360381019061010b91906109ac565b61048c565b005b61012c600480360381019061012791906109ac565b610584565b005b610148600480360381019061014391906109ac565b6107ab565b60405161015591906109f4565b60405180910390f35b6000600160008373ffffffffffffffffffffffffffffffffffffffff1673ffffffffffffffffffffffffffffffffffffffff16815260200190815260200160002060009054906101000a900460ff169050919050565b6101bc61087d565b73ffffffffffffffffffffffffffffffffffffffff166101da61023c565b73ffffffffffffffffffffffffffffffffffffffff1614610230576040517f08c379a000000000000000000000000000000000000000000000000000000000815260040161022790610a96565b60405180910390fd5b61023a6000610885565b565b60008060009054906101000a900473ffffffffffffffffffffffffffffffffffffffff16905090565b61026d61087d565b73ffffffffffffffffffffffffffffffffffffffff1661028b61023c565b73ffffffffffffffffffffffffffffffffffffffff16146102e1576040517f08c379a00000000000000000000000000000000000000000000000000000000081526004016102d890610a96565b60405180910390fd5b600160008273ffffffffffffffffffffffffffffffffffffffff1673ffffffffffffffffffffffffffffffffffffffff16815260200190815260200160002060009054906101000a900460ff161561036e576040517f08c379a000000000000000000000000000000000000000000000000000000000815260040161036590610b28565b60405180910390fd5b600260008273ffffffffffffffffffffffffffffffffffffffff1673ffffffffffffffffffffffffffffffffffffffff16815260200190815260200160002060009054906101000a900460ff16156103fb576040517f08c379a00000000000000000000000000000000000000000000000000000000081526004016103f290610bba565b60405180910390fd5b60018060008373ffffffffffffffffffffffffffffffffffffffff1673ffffffffffffffffffffffffffffffffffffffff16815260200190815260200160002060006101000a81548160ff0219169083151502179055507faab7954e9d246b167ef88aeddad35209ca2489d95a8aeb59e288d9b19fae5a54816040516104819190610a1e565b60405180910390a150565b61049461087d565b73ffffffffffffffffffffffffffffffffffffffff166104b261023c565b73ffffffffffffffffffffffffffffffffffffffff1614610508576040517f08c379a00000000000000000000000000000000000000000000000000000000081526004016104ff90610a96565b60405180910390fd5b600073ffffffffffffffffffffffffffffffffffffffff168173ffffffffffffffffffffffffffffffffffffffff161415610578576040517f08c379a000000000000000000000000000000000000000000000000000000000815260040161056f90610c4c565b60405180910390fd5b61058181610885565b50565b61058c61087d565b73ffffffffffffffffffffffffffffffffffffffff166105aa61023c565b73ffffffffffffffffffffffffffffffffffffffff1614610600576040517f08c379a00000000000000000000000000000000000000000000000000000000081526004016105f790610a96565b60405180910390fd5b600260008273ffffffffffffffffffffffffffffffffffffffff1673ffffffffffffffffffffffffffffffffffffffff16815260200190815260200160002060009054906101000a900460ff161561068d576040517f08c379a000000000000000000000000000000000000000000000000000000000815260040161068490610bba565b60405180910390fd5b600160008273ffffffffffffffffffffffffffffffffffffffff1673ffffffffffffffffffffffffffffffffffffffff16815260200190815260200160002060009054906101000a900460ff161561071a576040517f08c379a000000000000000000000000000000000000000000000000000000000815260040161071190610b28565b60405180910390fd5b60018060008373ffffffffffffffffffffffffffffffffffffffff1673ffffffffffffffffffffffffffffffffffffffff16815260200190815260200160002060006101000a81548160ff0219169083151502179055507fffa4e6181777692565cf28528fc88fd1516ea86b56da075235fa575af6a4b855816040516107a09190610a1e565b60405180910390a150565b60006107b561087d565b73ffffffffffffffffffffffffffffffffffffffff166107d361023c565b73ffffffffffffffffffffffffffffffffffffffff1614610829576040517f08c379a000000000000000000000000000000000000000000000000000000000815260040161082090610a96565b60405180910390fd5b600260008373ffffffffffffffffffffffffffffffffffffffff1673ffffffffffffffffffffffffffffffffffffffff16815260200190815260200160002060009054906101000a900460ff169050919050565b600033905090565b60008060009054906101000a900473ffffffffffffffffffffffffffffffffffffffff169050816000806101000a81548173ffffffffffffffffffffffffffffffffffffffff021916908373ffffffffffffffffffffffffffffffffffffffff1602179055508173ffffffffffffffffffffffffffffffffffffffff168173ffffffffffffffffffffffffffffffffffffffff167f8be0079c531659141344cd1fd0a4f28419497f9722a3daafe3b4186f6b6457e060405160405180910390a35050565b600080fd5b600073ffffffffffffffffffffffffffffffffffffffff82169050919050565b60006109798261094e565b9050919050565b6109898161096e565b811461099457600080fd5b50565b6000813590506109a681610980565b92915050565b6000602082840312156109c2576109c1610949565b5b60006109d084828501610997565b91505092915050565b60008115159050919050565b6109ee816109d9565b82525050565b6000602082019050610a0960008301846109e5565b92915050565b610a188161096e565b82525050565b6000602082019050610a336000830184610a0f565b92915050565b600082825260208201905092915050565b7f4f776e61626c653a2063616c6c6572206973206e6f7420746865206f776e6572600082015250565b6000610a80602083610a39565b9150610a8b82610a4a565b602082019050919050565b60006020820190508181036000830152610aaf81610a73565b9050919050565b7f54686973206164647265737320697320616c72656164792077686974656c697360008201527f7465642021000000000000000000000000000000000000000000000000000000602082015250565b6000610b12602583610a39565b9150610b1d82610ab6565b604082019050919050565b60006020820190508181036000830152610b4181610b05565b9050919050565b7f54686973206164647265737320697320616c726561647920626c61636b6c697360008201527f7465642021000000000000000000000000000000000000000000000000000000602082015250565b6000610ba4602583610a39565b9150610baf82610b48565b604082019050919050565b60006020820190508181036000830152610bd381610b97565b9050919050565b7f4f776e61626c653a206e6577206f776e657220697320746865207a65726f206160008201527f6464726573730000000000000000000000000000000000000000000000000000602082015250565b6000610c36602683610a39565b9150610c4182610bda565b604082019050919050565b60006020820190508181036000830152610c6581610c29565b905091905056fea2646970667358221220375f36f4bcb7162d6da3aa8f488221847bbbdc8aa8c354cf1bc796276d98b28264736f6c634300080a0033",
  "immutableReferences": {},
  "source": "// SPDX-License-Identifier: MIT\r\npragma solidity 0.8.10;\r\nimport \"@openzeppelin/contracts/access/Ownable.sol\";\r\n\r\ncontract Admin is Ownable{\r\n    mapping( address => bool) _whitelist;\r\n    mapping( address => bool) _blacklist;\r\n\r\n    event Whitelisted(address _address);\r\n    event Blacklisted(address _address);\r\n\r\n    function isWhitelisted(address _address) public view returns(bool){\r\n        return _whitelist[_address];\r\n    } \r\n\r\n    function isBlacklisted(address _address) public view onlyOwner returns(bool){\r\n        return _blacklist[_address];\r\n    } \r\n\r\n    function whitelist(address _address) public onlyOwner {\r\n        require(!_whitelist[_address], \"This address is already whitelisted !\");\r\n        require(!_blacklist[_address], \"This address is already blacklisted !\");\r\n        _whitelist[_address] = true;\r\n        emit Whitelisted(_address);\r\n    }\r\n\r\n    function blacklist(address _address) public onlyOwner {\r\n        require(!_blacklist[_address], \"This address is already blacklisted !\");\r\n        require(!_whitelist[_address], \"This address is already whitelisted !\");\r\n        _whitelist[_address] = true;\r\n        emit Blacklisted(_address);\r\n    }\r\n    \r\n}",
  "sourcePath": "C:\\wamp64\\www\\learnblockchain\\4. Truffle & CI-CD\\DEFI\\contracts\\Admin.sol",
  "compiler": {
    "name": "solc",
    "version": "0.8.10+commit.fc410830.Emscripten.clang"
  },
  "schemaVersion": "3.4.3",
  "updatedAt": "2021-11-15T17:41:15.822Z",
  "devdoc": {
    "kind": "dev",
    "methods": {
      "owner()": {
        "details": "Returns the address of the current owner."
      },
      "renounceOwnership()": {
        "details": "Leaves the contract without owner. It will not be possible to call `onlyOwner` functions anymore. Can only be called by the current owner. NOTE: Renouncing ownership will leave the contract without an owner, thereby removing any functionality that is only available to the owner."
      },
      "transferOwnership(address)": {
        "details": "Transfers ownership of the contract to a new account (`newOwner`). Can only be called by the current owner."
      }
    },
    "version": 1
  },
  "userdoc": {
    "kind": "user",
    "methods": {},
    "version": 1
  }
}