{
  "contractName": "Voting",
  "abi": [
    {
      "anonymous": false,
      "inputs": [
        {
          "indexed": false,
          "internalType": "address",
          "name": "_address",
          "type": "address"
        }
      ],
      "name": "Blacklisted",
      "type": "event"
    },
    {
      "anonymous": false,
      "inputs": [
        {
          "indexed": true,
          "internalType": "address",
          "name": "previousOwner",
          "type": "address"
        },
        {
          "indexed": true,
          "internalType": "address",
          "name": "newOwner",
          "type": "address"
        }
      ],
      "name": "OwnershipTransferred",
      "type": "event"
    },
    {
      "anonymous": false,
      "inputs": [
        {
          "indexed": false,
          "internalType": "uint256",
          "name": "proposalId",
          "type": "uint256"
        }
      ],
      "name": "ProposalRegistered",
      "type": "event"
    },
    {
      "anonymous": false,
      "inputs": [
        {
          "indexed": false,
          "internalType": "address",
          "name": "voter",
          "type": "address"
        },
        {
          "indexed": false,
          "internalType": "uint256",
          "name": "proposalId",
          "type": "uint256"
        }
      ],
      "name": "Voted",
      "type": "event"
    },
    {
      "anonymous": false,
      "inputs": [
        {
          "indexed": false,
          "internalType": "address",
          "name": "voterAddress",
          "type": "address"
        }
      ],
      "name": "VoterRegistered",
      "type": "event"
    },
    {
      "anonymous": false,
      "inputs": [
        {
          "indexed": false,
          "internalType": "address",
          "name": "_address",
          "type": "address"
        }
      ],
      "name": "Whitelisted",
      "type": "event"
    },
    {
      "anonymous": false,
      "inputs": [
        {
          "indexed": false,
          "internalType": "enum Voting.WorkflowStatus",
          "name": "previousStatus",
          "type": "uint8"
        },
        {
          "indexed": false,
          "internalType": "enum Voting.WorkflowStatus",
          "name": "newStatus",
          "type": "uint8"
        }
      ],
      "name": "WorkflowStatusChange",
      "type": "event"
    },
    {
      "inputs": [],
      "name": "actualStatus",
      "outputs": [
        {
          "internalType": "enum Voting.WorkflowStatus",
          "name": "",
          "type": "uint8"
        }
      ],
      "stateMutability": "view",
      "type": "function"
    },
    {
      "inputs": [
        {
          "internalType": "address",
          "name": "_address",
          "type": "address"
        }
      ],
      "name": "blacklist",
      "outputs": [],
      "stateMutability": "nonpayable",
      "type": "function"
    },
    {
      "inputs": [
        {
          "internalType": "address",
          "name": "_address",
          "type": "address"
        }
      ],
      "name": "isBlacklisted",
      "outputs": [
        {
          "internalType": "bool",
          "name": "",
          "type": "bool"
        }
      ],
      "stateMutability": "view",
      "type": "function"
    },
    {
      "inputs": [
        {
          "internalType": "address",
          "name": "_address",
          "type": "address"
        }
      ],
      "name": "isWhitelisted",
      "outputs": [
        {
          "internalType": "bool",
          "name": "",
          "type": "bool"
        }
      ],
      "stateMutability": "view",
      "type": "function"
    },
    {
      "inputs": [],
      "name": "numberProposals",
      "outputs": [
        {
          "internalType": "uint256",
          "name": "",
          "type": "uint256"
        }
      ],
      "stateMutability": "view",
      "type": "function"
    },
    {
      "inputs": [],
      "name": "owner",
      "outputs": [
        {
          "internalType": "address",
          "name": "",
          "type": "address"
        }
      ],
      "stateMutability": "view",
      "type": "function"
    },
    {
      "inputs": [
        {
          "internalType": "uint256",
          "name": "",
          "type": "uint256"
        }
      ],
      "name": "proposals",
      "outputs": [
        {
          "internalType": "string",
          "name": "description",
          "type": "string"
        },
        {
          "internalType": "uint256",
          "name": "voteCount",
          "type": "uint256"
        }
      ],
      "stateMutability": "view",
      "type": "function"
    },
    {
      "inputs": [],
      "name": "renounceOwnership",
      "outputs": [],
      "stateMutability": "nonpayable",
      "type": "function"
    },
    {
      "inputs": [
        {
          "internalType": "address",
          "name": "newOwner",
          "type": "address"
        }
      ],
      "name": "transferOwnership",
      "outputs": [],
      "stateMutability": "nonpayable",
      "type": "function"
    },
    {
      "inputs": [
        {
          "internalType": "address",
          "name": "",
          "type": "address"
        }
      ],
      "name": "voters",
      "outputs": [
        {
          "internalType": "bool",
          "name": "isRegistered",
          "type": "bool"
        },
        {
          "internalType": "bool",
          "name": "hasVoted",
          "type": "bool"
        },
        {
          "internalType": "uint256",
          "name": "votedProposalId",
          "type": "uint256"
        }
      ],
      "stateMutability": "view",
      "type": "function"
    },
    {
      "inputs": [
        {
          "internalType": "address",
          "name": "_address",
          "type": "address"
        }
      ],
      "name": "whitelist",
      "outputs": [],
      "stateMutability": "nonpayable",
      "type": "function"
    },
    {
      "inputs": [],
      "name": "winningProposalId",
      "outputs": [
        {
          "internalType": "uint256",
          "name": "",
          "type": "uint256"
        }
      ],
      "stateMutability": "view",
      "type": "function"
    },
    {
      "inputs": [
        {
          "internalType": "enum Voting.WorkflowStatus",
          "name": "newStatus",
          "type": "uint8"
        }
      ],
      "name": "changeWorkflow",
      "outputs": [],
      "stateMutability": "nonpayable",
      "type": "function"
    },
    {
      "inputs": [
        {
          "internalType": "address",
          "name": "_address",
          "type": "address"
        }
      ],
      "name": "voterRegistered",
      "outputs": [],
      "stateMutability": "nonpayable",
      "type": "function"
    },
    {
      "inputs": [
        {
          "internalType": "string",
          "name": "description",
          "type": "string"
        }
      ],
      "name": "registeredProposal",
      "outputs": [],
      "stateMutability": "nonpayable",
      "type": "function"
    },
    {
      "inputs": [
        {
          "internalType": "uint256",
          "name": "proposalId",
          "type": "uint256"
        }
      ],
      "name": "vote",
      "outputs": [],
      "stateMutability": "nonpayable",
      "type": "function"
    },
    {
      "inputs": [],
      "name": "getWinningProposal",
      "outputs": [
        {
          "internalType": "uint256",
          "name": "",
          "type": "uint256"
        }
      ],
      "stateMutability": "nonpayable",
      "type": "function"
    }
  ],
  "bytecode": "0x608060405260006004556000600560006101000a81548160ff0219169083600581111562000032576200003162000137565b5b02179055503480156200004457600080fd5b5062000065620000596200006b60201b60201c565b6200007360201b60201c565b62000166565b600033905090565b60008060009054906101000a900473ffffffffffffffffffffffffffffffffffffffff169050816000806101000a81548173ffffffffffffffffffffffffffffffffffffffff021916908373ffffffffffffffffffffffffffffffffffffffff1602179055508173ffffffffffffffffffffffffffffffffffffffff168173ffffffffffffffffffffffffffffffffffffffff167f8be0079c531659141344cd1fd0a4f28419497f9722a3daafe3b4186f6b6457e060405160405180910390a35050565b7f4e487b7100000000000000000000000000000000000000000000000000000000600052602160045260246000fd5b61237f80620001766000396000f3fe608060405234801561001057600080fd5b506004361061010b5760003560e01c80639b19251a116100a2578063c6cf87d011610071578063c6cf87d014610297578063e0fc383d146102b3578063f2fde38b146102cf578063f9f92be4146102eb578063fe575a87146103075761010b565b80639b19251a1461020d578063a3ec138d14610229578063a51346201461025b578063c64963c5146102795761010b565b80633af32abf116100de5780633af32abf146101975780636cc416a9146101c7578063715018a6146101e55780638da5cb5b146101ef5761010b565b80630121b93f14610110578063013cf08b1461012c5780633447d0d11461015d578063387e3d201461017b575b600080fd5b61012a60048036038101906101259190611671565b610337565b005b61014660048036038101906101419190611671565b610644565b604051610154929190611746565b60405180910390f35b610165610700565b6040516101729190611776565b60405180910390f35b610195600480360381019061019091906117ef565b610706565b005b6101b160048036038101906101ac91906117ef565b61083b565b6040516101be9190611837565b60405180910390f35b6101cf610891565b6040516101dc91906118c9565b60405180910390f35b6101ed6108a4565b005b6101f761092c565b60405161020491906118f3565b60405180910390f35b610227600480360381019061022291906117ef565b610955565b005b610243600480360381019061023e91906117ef565b610b7c565b6040516102529392919061190e565b60405180910390f35b610263610bc0565b6040516102709190611776565b60405180910390f35b610281610d92565b60405161028e9190611776565b60405180910390f35b6102b160048036038101906102ac919061196a565b610d98565b005b6102cd60048036038101906102c89190611acc565b610f4b565b005b6102e960048036038101906102e491906117ef565b6110c7565b005b610305600480360381019061030091906117ef565b6111bf565b005b610321600480360381019061031c91906117ef565b6113e6565b60405161032e9190611837565b60405180910390f35b6003600581111561034b5761034a611852565b5b600560009054906101000a900460ff16600581111561036d5761036c611852565b5b146103ad576040517f08c379a00000000000000000000000000000000000000000000000000000000081526004016103a490611b61565b60405180910390fd5b60045481106103f1576040517f08c379a00000000000000000000000000000000000000000000000000000000081526004016103e890611bcd565b60405180910390fd5b600760003373ffffffffffffffffffffffffffffffffffffffff1673ffffffffffffffffffffffffffffffffffffffff16815260200190815260200160002060000160019054906101000a900460ff1615610481576040517f08c379a000000000000000000000000000000000000000000000000000000000815260040161047890611c39565b60405180910390fd5b61048a3361083b565b6104c9576040517f08c379a00000000000000000000000000000000000000000000000000000000081526004016104c090611ca5565b60405180910390fd5b6104d23361083b565b600760003373ffffffffffffffffffffffffffffffffffffffff1673ffffffffffffffffffffffffffffffffffffffff16815260200190815260200160002060000160006101000a81548160ff0219169083151502179055506006818154811061053f5761053e611cc5565b5b9060005260206000209060020201600101600081548092919061056190611d23565b91905055506001600760003373ffffffffffffffffffffffffffffffffffffffff1673ffffffffffffffffffffffffffffffffffffffff16815260200190815260200160002060000160016101000a81548160ff02191690831515021790555080600760003373ffffffffffffffffffffffffffffffffffffffff1673ffffffffffffffffffffffffffffffffffffffff168152602001908152602001600020600101819055507f4d99b957a2bc29a30ebd96a7be8e68fe50a3c701db28a91436490b7d53870ca43382604051610639929190611d6c565b60405180910390a150565b6006818154811061065457600080fd5b906000526020600020906002020160009150905080600001805461067790611dc4565b80601f01602080910402602001604051908101604052809291908181526020018280546106a390611dc4565b80156106f05780601f106106c5576101008083540402835291602001916106f0565b820191906000526020600020905b8154815290600101906020018083116106d357829003601f168201915b5050505050908060010154905082565b60045481565b61070e6114b8565b73ffffffffffffffffffffffffffffffffffffffff1661072c61092c565b73ffffffffffffffffffffffffffffffffffffffff1614610782576040517f08c379a000000000000000000000000000000000000000000000000000000000815260040161077990611e42565b60405180910390fd5b6000600581111561079657610795611852565b5b600560009054906101000a900460ff1660058111156107b8576107b7611852565b5b146107f8576040517f08c379a00000000000000000000000000000000000000000000000000000000081526004016107ef90611ed4565b60405180910390fd5b61080181610955565b7fb6be2187d059cc2a55fe29e0e503b566e1e0f8c8780096e185429350acffd3dd8160405161083091906118f3565b60405180910390a150565b6000600160008373ffffffffffffffffffffffffffffffffffffffff1673ffffffffffffffffffffffffffffffffffffffff16815260200190815260200160002060009054906101000a900460ff169050919050565b600560009054906101000a900460ff1681565b6108ac6114b8565b73ffffffffffffffffffffffffffffffffffffffff166108ca61092c565b73ffffffffffffffffffffffffffffffffffffffff1614610920576040517f08c379a000000000000000000000000000000000000000000000000000000000815260040161091790611e42565b60405180910390fd5b61092a60006114c0565b565b60008060009054906101000a900473ffffffffffffffffffffffffffffffffffffffff16905090565b61095d6114b8565b73ffffffffffffffffffffffffffffffffffffffff1661097b61092c565b73ffffffffffffffffffffffffffffffffffffffff16146109d1576040517f08c379a00000000000000000000000000000000000000000000000000000000081526004016109c890611e42565b60405180910390fd5b600160008273ffffffffffffffffffffffffffffffffffffffff1673ffffffffffffffffffffffffffffffffffffffff16815260200190815260200160002060009054906101000a900460ff1615610a5e576040517f08c379a0000000000000000000000000000000000000000000000000000000008152600401610a5590611f66565b60405180910390fd5b600260008273ffffffffffffffffffffffffffffffffffffffff1673ffffffffffffffffffffffffffffffffffffffff16815260200190815260200160002060009054906101000a900460ff1615610aeb576040517f08c379a0000000000000000000000000000000000000000000000000000000008152600401610ae290611ff8565b60405180910390fd5b60018060008373ffffffffffffffffffffffffffffffffffffffff1673ffffffffffffffffffffffffffffffffffffffff16815260200190815260200160002060006101000a81548160ff0219169083151502179055507faab7954e9d246b167ef88aeddad35209ca2489d95a8aeb59e288d9b19fae5a5481604051610b7191906118f3565b60405180910390a150565b60076020528060005260406000206000915090508060000160009054906101000a900460ff16908060000160019054906101000a900460ff16908060010154905083565b6000600560009054906101000a900460ff166005811115610be457610be3611852565b5b600580811115610bf757610bf6611852565b5b1480610c36575060046005811115610c1257610c11611852565b5b600560009054906101000a900460ff166005811115610c3457610c33611852565b5b145b610c75576040517f08c379a0000000000000000000000000000000000000000000000000000000008152600401610c6c90612064565b60405180910390fd5b60006001600454610c869190612084565b11610cc6576040517f08c379a0000000000000000000000000000000000000000000000000000000008152600401610cbd90612104565b60405180910390fd5b600060068054905090506000805b82811015610d7d57600060068281548110610cf257610cf1611cc5565b5b906000526020600020906002020160010154118015610d35575060068181548110610d2057610d1f611cc5565b5b90600052602060002090600202016001015482105b15610d6a578060038190555060068181548110610d5557610d54611cc5565b5b90600052602060002090600202016001015491505b8080610d7590611d23565b915050610cd4565b50610d886005610d98565b6003549250505090565b60035481565b610da06114b8565b73ffffffffffffffffffffffffffffffffffffffff16610dbe61092c565b73ffffffffffffffffffffffffffffffffffffffff1614610e14576040517f08c379a0000000000000000000000000000000000000000000000000000000008152600401610e0b90611e42565b60405180910390fd5b600560009054906101000a900460ff166005811115610e3657610e35611852565b5b60ff16816005811115610e4c57610e4b611852565b5b60ff161415610e90576040517f08c379a0000000000000000000000000000000000000000000000000000000008152600401610e8790612170565b60405180910390fd5b7f0a97a4ee45751e2abf3e4fc8946939630b11b371ea8ae39ccdc3056e98f5cc3f600560009054906101000a900460ff1682604051610ed0929190612190565b60405180910390a180600560006101000a81548160ff02191690836005811115610efd57610efc611852565b5b021790555060046005811115610f1657610f15611852565b5b600560009054906101000a900460ff166005811115610f3857610f37611852565b5b1415610f4857610f46610bc0565b505b50565b60016005811115610f5f57610f5e611852565b5b600560009054906101000a900460ff166005811115610f8157610f80611852565b5b14610fc1576040517f08c379a0000000000000000000000000000000000000000000000000000000008152600401610fb89061222b565b60405180910390fd5b610fca3361083b565b611009576040517f08c379a000000000000000000000000000000000000000000000000000000000815260040161100090612297565b60405180910390fd5b60066040518060400160405280838152602001600081525090806001815401808255809150506001900390600052602060002090600202016000909190919091506000820151816000019080519060200190611066929190611584565b506020820151816001015550507f92e393e9b54e2f801d3ea4beb0c5e71a21cc34a5d34b77d0fb8a3aa1650dc18f6004546040516110a49190611776565b60405180910390a1600460008154809291906110bf90611d23565b919050555050565b6110cf6114b8565b73ffffffffffffffffffffffffffffffffffffffff166110ed61092c565b73ffffffffffffffffffffffffffffffffffffffff1614611143576040517f08c379a000000000000000000000000000000000000000000000000000000000815260040161113a90611e42565b60405180910390fd5b600073ffffffffffffffffffffffffffffffffffffffff168173ffffffffffffffffffffffffffffffffffffffff1614156111b3576040517f08c379a00000000000000000000000000000000000000000000000000000000081526004016111aa90612329565b60405180910390fd5b6111bc816114c0565b50565b6111c76114b8565b73ffffffffffffffffffffffffffffffffffffffff166111e561092c565b73ffffffffffffffffffffffffffffffffffffffff161461123b576040517f08c379a000000000000000000000000000000000000000000000000000000000815260040161123290611e42565b60405180910390fd5b600260008273ffffffffffffffffffffffffffffffffffffffff1673ffffffffffffffffffffffffffffffffffffffff16815260200190815260200160002060009054906101000a900460ff16156112c8576040517f08c379a00000000000000000000000000000000000000000000000000000000081526004016112bf90611ff8565b60405180910390fd5b600160008273ffffffffffffffffffffffffffffffffffffffff1673ffffffffffffffffffffffffffffffffffffffff16815260200190815260200160002060009054906101000a900460ff1615611355576040517f08c379a000000000000000000000000000000000000000000000000000000000815260040161134c90611f66565b60405180910390fd5b60018060008373ffffffffffffffffffffffffffffffffffffffff1673ffffffffffffffffffffffffffffffffffffffff16815260200190815260200160002060006101000a81548160ff0219169083151502179055507fffa4e6181777692565cf28528fc88fd1516ea86b56da075235fa575af6a4b855816040516113db91906118f3565b60405180910390a150565b60006113f06114b8565b73ffffffffffffffffffffffffffffffffffffffff1661140e61092c565b73ffffffffffffffffffffffffffffffffffffffff1614611464576040517f08c379a000000000000000000000000000000000000000000000000000000000815260040161145b90611e42565b60405180910390fd5b600260008373ffffffffffffffffffffffffffffffffffffffff1673ffffffffffffffffffffffffffffffffffffffff16815260200190815260200160002060009054906101000a900460ff169050919050565b600033905090565b60008060009054906101000a900473ffffffffffffffffffffffffffffffffffffffff169050816000806101000a81548173ffffffffffffffffffffffffffffffffffffffff021916908373ffffffffffffffffffffffffffffffffffffffff1602179055508173ffffffffffffffffffffffffffffffffffffffff168173ffffffffffffffffffffffffffffffffffffffff167f8be0079c531659141344cd1fd0a4f28419497f9722a3daafe3b4186f6b6457e060405160405180910390a35050565b82805461159090611dc4565b90600052602060002090601f0160209004810192826115b257600085556115f9565b82601f106115cb57805160ff19168380011785556115f9565b828001600101855582156115f9579182015b828111156115f85782518255916020019190600101906115dd565b5b509050611606919061160a565b5090565b5b8082111561162357600081600090555060010161160b565b5090565b6000604051905090565b600080fd5b600080fd5b6000819050919050565b61164e8161163b565b811461165957600080fd5b50565b60008135905061166b81611645565b92915050565b60006020828403121561168757611686611631565b5b60006116958482850161165c565b91505092915050565b600081519050919050565b600082825260208201905092915050565b60005b838110156116d85780820151818401526020810190506116bd565b838111156116e7576000848401525b50505050565b6000601f19601f8301169050919050565b60006117098261169e565b61171381856116a9565b93506117238185602086016116ba565b61172c816116ed565b840191505092915050565b6117408161163b565b82525050565b6000604082019050818103600083015261176081856116fe565b905061176f6020830184611737565b9392505050565b600060208201905061178b6000830184611737565b92915050565b600073ffffffffffffffffffffffffffffffffffffffff82169050919050565b60006117bc82611791565b9050919050565b6117cc816117b1565b81146117d757600080fd5b50565b6000813590506117e9816117c3565b92915050565b60006020828403121561180557611804611631565b5b6000611813848285016117da565b91505092915050565b60008115159050919050565b6118318161181c565b82525050565b600060208201905061184c6000830184611828565b92915050565b7f4e487b7100000000000000000000000000000000000000000000000000000000600052602160045260246000fd5b6006811061189257611891611852565b5b50565b60008190506118a382611881565b919050565b60006118b382611895565b9050919050565b6118c3816118a8565b82525050565b60006020820190506118de60008301846118ba565b92915050565b6118ed816117b1565b82525050565b600060208201905061190860008301846118e4565b92915050565b60006060820190506119236000830186611828565b6119306020830185611828565b61193d6040830184611737565b949350505050565b6006811061195257600080fd5b50565b60008135905061196481611945565b92915050565b6000602082840312156119805761197f611631565b5b600061198e84828501611955565b91505092915050565b600080fd5b600080fd5b7f4e487b7100000000000000000000000000000000000000000000000000000000600052604160045260246000fd5b6119d9826116ed565b810181811067ffffffffffffffff821117156119f8576119f76119a1565b5b80604052505050565b6000611a0b611627565b9050611a1782826119d0565b919050565b600067ffffffffffffffff821115611a3757611a366119a1565b5b611a40826116ed565b9050602081019050919050565b82818337600083830152505050565b6000611a6f611a6a84611a1c565b611a01565b905082815260208101848484011115611a8b57611a8a61199c565b5b611a96848285611a4d565b509392505050565b600082601f830112611ab357611ab2611997565b5b8135611ac3848260208601611a5c565b91505092915050565b600060208284031215611ae257611ae1611631565b5b600082013567ffffffffffffffff811115611b0057611aff611636565b5b611b0c84828501611a9e565b91505092915050565b7f4c612073657373696f6e20646520766f746520657374206665726d6520212000600082015250565b6000611b4b601f836116a9565b9150611b5682611b15565b602082019050919050565b60006020820190508181036000830152611b7a81611b3e565b9050919050565b7f4c612070726f706f736974696f6e206e27657869737465207061730000000000600082015250565b6000611bb7601b836116a9565b9150611bc282611b81565b602082019050919050565b60006020820190508181036000830152611be681611baa565b9050919050565b7f566f7573206176657a2064656a6120766f746500000000000000000000000000600082015250565b6000611c236013836116a9565b9150611c2e82611bed565b602082019050919050565b60006020820190508181036000830152611c5281611c16565b9050919050565b7f566f7573206e20657465732070617320656e7265676973747265000000000000600082015250565b6000611c8f601a836116a9565b9150611c9a82611c59565b602082019050919050565b60006020820190508181036000830152611cbe81611c82565b9050919050565b7f4e487b7100000000000000000000000000000000000000000000000000000000600052603260045260246000fd5b7f4e487b7100000000000000000000000000000000000000000000000000000000600052601160045260246000fd5b6000611d2e8261163b565b91507fffffffffffffffffffffffffffffffffffffffffffffffffffffffffffffffff821415611d6157611d60611cf4565b5b600182019050919050565b6000604082019050611d8160008301856118e4565b611d8e6020830184611737565b9392505050565b7f4e487b7100000000000000000000000000000000000000000000000000000000600052602260045260246000fd5b60006002820490506001821680611ddc57607f821691505b60208210811415611df057611def611d95565b5b50919050565b7f4f776e61626c653a2063616c6c6572206973206e6f7420746865206f776e6572600082015250565b6000611e2c6020836116a9565b9150611e3782611df6565b602082019050919050565b60006020820190508181036000830152611e5b81611e1f565b9050919050565b7f4c6120706572696f6465206420656e72656769737472656d656e742061206c6160008201527f2077686974656c69737420657374206665726d65202120000000000000000000602082015250565b6000611ebe6037836116a9565b9150611ec982611e62565b604082019050919050565b60006020820190508181036000830152611eed81611eb1565b9050919050565b7f54686973206164647265737320697320616c72656164792077686974656c697360008201527f7465642021000000000000000000000000000000000000000000000000000000602082015250565b6000611f506025836116a9565b9150611f5b82611ef4565b604082019050919050565b60006020820190508181036000830152611f7f81611f43565b9050919050565b7f54686973206164647265737320697320616c726561647920626c61636b6c697360008201527f7465642021000000000000000000000000000000000000000000000000000000602082015250565b6000611fe26025836116a9565b9150611fed82611f86565b604082019050919050565b6000602082019050818103600083015261201181611fd5565b9050919050565b7f4c65206465636f6d707465206e2065737420706173206f757665727400000000600082015250565b600061204e601c836116a9565b915061205982612018565b602082019050919050565b6000602082019050818103600083015261207d81612041565b9050919050565b600061208f8261163b565b915061209a8361163b565b9250828210156120ad576120ac611cf4565b5b828203905092915050565b7f496c206e27792061207061732064652070726f736974696f6e00000000000000600082015250565b60006120ee6019836116a9565b91506120f9826120b8565b602082019050919050565b6000602082019050818103600083015261211d816120e1565b9050919050565b7f436520737461747573206573742064656a612063656c75692061637475656c00600082015250565b600061215a601f836116a9565b915061216582612124565b602082019050919050565b600060208201905081810360008301526121898161214d565b9050919050565b60006040820190506121a560008301856118ba565b6121b260208301846118ba565b9392505050565b7f4c6120706572696f6465206420656e72656769737472656d656e74206465732060008201527f70726f706f736974696f6e7320657374206665726d6520212000000000000000602082015250565b60006122156039836116a9565b9150612220826121b9565b604082019050919050565b6000602082019050818103600083015261224481612208565b9050919050565b7f6661757800000000000000000000000000000000000000000000000000000000600082015250565b60006122816004836116a9565b915061228c8261224b565b602082019050919050565b600060208201905081810360008301526122b081612274565b9050919050565b7f4f776e61626c653a206e6577206f776e657220697320746865207a65726f206160008201527f6464726573730000000000000000000000000000000000000000000000000000602082015250565b60006123136026836116a9565b915061231e826122b7565b604082019050919050565b6000602082019050818103600083015261234281612306565b905091905056fea2646970667358221220d59c9a179db3935df6769ed729b1a14d39fa870e543763f87ff40b52117eabb664736f6c634300080a0033",
  "immutableReferences": {},
  "source": "// SPDX-License-Identifier: MIT\npragma solidity 0.8.10;\nimport \"../contracts/Admin.sol\";\n\ncontract Voting is Admin {\n    struct Voter {\n        bool isRegistered;\n        bool hasVoted;\n        uint256 votedProposalId;\n    }\n\n    struct Proposal {\n        string description;\n        uint256 voteCount;\n    }\n\n    enum WorkflowStatus {\n        RegisteringVoters,\n        ProposalsRegistrationStarted,\n        ProposalsRegistrationEnded,\n        VotingSessionStarted,\n        VotingSessionEnded,\n        VotesTallied\n    }\n\n    uint256 public winningProposalId;\n    uint256 public numberProposals = 0;\n    WorkflowStatus public actualStatus = WorkflowStatus.RegisteringVoters;\n    Proposal[] public proposals;\n    mapping(address => Voter) public voters;\n\n    event VoterRegistered(address voterAddress);\n    event WorkflowStatusChange(\n        WorkflowStatus previousStatus,\n        WorkflowStatus newStatus\n    );\n    event ProposalRegistered(uint256 proposalId);\n    event Voted(address voter, uint256 proposalId);\n\n    //Permet de changer facilement le workFlow\n    function changeWorkflow(WorkflowStatus newStatus) public onlyOwner {\n        require(\n            uint8(newStatus) != uint8(actualStatus),\n            \"Ce status est deja celui actuel\"\n        );\n        emit WorkflowStatusChange(actualStatus, newStatus);\n        actualStatus = newStatus;\n\n        if (uint256(actualStatus) == uint256(WorkflowStatus.VotingSessionEnded)) \n        {\n            getWinningProposal();\n        }\n    }\n\n    //Enregistrement des electeurs par l'administrateur\n    function voterRegistered(address _address) public onlyOwner {\n        require(\n            uint256(actualStatus) == uint256(WorkflowStatus.RegisteringVoters),\n            \"La periode d enregistrement a la whitelist est ferme ! \"\n        );\n        Admin.whitelist(_address);\n        emit VoterRegistered(_address);\n    }\n\n    // Enregistrement des propositions\n    function registeredProposal(string memory description) public {\n        require(\n            actualStatus == WorkflowStatus.ProposalsRegistrationStarted,\n            \"La periode d enregistrement des propositions est ferme ! \"\n        );\n        require(Admin.isWhitelisted(msg.sender), \"faux\");\n        proposals.push(Proposal(description, 0));\n        emit ProposalRegistered(numberProposals);\n        numberProposals++;\n    }\n\n    //Les electeurs votent pour la proposition\n    function vote(uint256 proposalId) public {\n        require(\n            actualStatus == WorkflowStatus.VotingSessionStarted,\n            \"La session de vote est ferme ! \"\n        );\n        require(proposalId < numberProposals, \"La proposition n'existe pas\");\n        require(!voters[msg.sender].hasVoted, \"Vous avez deja vote\");\n        require(Admin.isWhitelisted(msg.sender), \"Vous n etes pas enregistre\");\n        voters[msg.sender].isRegistered = Admin.isWhitelisted(msg.sender);\n        proposals[proposalId].voteCount++;\n        voters[msg.sender].hasVoted = true;\n        voters[msg.sender].votedProposalId = proposalId;\n\n        emit Voted(msg.sender, proposalId);\n    }\n\n    // Permet de rcuprer le gagnant\n    function getWinningProposal() public returns (uint256) {\n        require(\n            WorkflowStatus.VotesTallied == actualStatus ||\n                actualStatus == WorkflowStatus.VotingSessionEnded,\n            \"Le decompte n est pas ouvert\"\n        );\n        require((numberProposals - 1) > 0, \"Il n'y a pas de prosition\");\n\n        uint256 arrayLength = proposals.length;\n        uint256 countWinner = 0;\n        for (uint256 i = 0; i < arrayLength; i++) {\n            if (\n                proposals[i].voteCount > 0 &&\n                countWinner < proposals[i].voteCount\n            ) {\n                winningProposalId = i;\n                countWinner = proposals[i].voteCount;\n            }\n        }\n\n        changeWorkflow(WorkflowStatus.VotesTallied);\n        return winningProposalId;\n    }\n}\n",
  "sourcePath": "C:\\wamp64\\www\\learnblockchain\\4. Truffle & CI-CD\\DEFI\\contracts\\Voting.sol",
  "compiler": {
    "name": "solc",
    "version": "0.8.10+commit.fc410830.Emscripten.clang"
  },
  "schemaVersion": "3.4.3",
  "updatedAt": "2021-11-15T17:41:15.841Z",
  "devdoc": {
    "kind": "dev",
    "methods": {
      "owner()": {
        "details": "Returns the address of the current owner."
      },
      "renounceOwnership()": {
        "details": "Leaves the contract without owner. It will not be possible to call `onlyOwner` functions anymore. Can only be called by the current owner. NOTE: Renouncing ownership will leave the contract without an owner, thereby removing any functionality that is only available to the owner."
      },
      "transferOwnership(address)": {
        "details": "Transfers ownership of the contract to a new account (`newOwner`). Can only be called by the current owner."
      }
    },
    "version": 1
  },
  "userdoc": {
    "kind": "user",
    "methods": {},
    "version": 1
  }
}